:100000000C94DE000C9406010C9406010C9406017D
:100010000C9406010C9406010C9406010C94060144
:100020000C9406010C9406010C9406010C94060134
:100030000C9406010C9406010C9406010C94060124
:100040000C9490050C9406010C945E050C943805F4
:100050000C9406010C9406010C9406010C94060104
:100060000C9406010C9406010000000024002700F7
:100070002A00000000000000000000000000000056
:10008000000000000000000000000101010101016A
:100090000101010101010202020202020202030344
:1000A0000303030304040404050505050506060609
:1000B000060707070808080909090A0A0A0B0B0BB3
:1000C0000C0C0D0D0D0E0E0F0F101011111212133E
:1000D0001314141515161617181819191A1B1B1CAA
:1000E0001D1D1E1F1F2021222223242526262728EE
:1000F000292A2A2B2C2D2E2F303132333435363706
:1001000038393A3B3C3D3E3F4041424445464748F2
:10011000494B4C4D4E50515254555658595A5C5DAE
:100120005E606163646667696A6C6D6F7072737537
:1001300077787A7C7D7F8182848688898B8D8F9188
:10014000929496989A9C9EA0A2A4A6A8AAACAEB09F
:10015000B2B4B6B8BABCBFC1C3C5C7CACCCED1D37E
:10016000D5D7DADCDFE1E3E6E8EBEDF0F2F5F7FA1C
:10017000FCFF00000008000201000003040700006B
:10018000000000000000010204081020408001026D
:1001900004081020010204081020000000002500BF
:1001A00028002B00040404040404040402020202D4
:1001B0000202030303030303DA059C0911241FBE93
:1001C000CFEFD8E0DEBFCDBF14E0A0E0B1E0EAEFB2
:1001D000F6E102C005900D92AA3FB107D9F725E0DC
:1001E000AAEFB4E001C01D92AB3CB207E1F710E00A
:1001F000CDEDD0E004C02197FE010E94360ACC3D2F
:10020000D107C9F70E947B060C94700B0C94000078
:1002100090E0FC01EE58FE4F2491FC01EA57FE4F9E
:100220003491FC01EC55FE4FE491EE23B9F022230A
:1002300039F02330F1F098F4213009F1223019F12E
:10024000F0E0EE0FFF1FE656FE4FA591B4918FB779
:10025000F894EC9130953E233C938FBF089527305E
:10026000A9F02830C9F0243059F7809180008F7DA3
:1002700003C0809180008F7780938000E1CF84B5A8
:100280008F7784BDDDCF84B58F7DFBCF8091B000AB
:100290008F778093B000D4CF8091B0008F7DF9CF5D
:1002A0008F929F92AF92BF92CF92DF92EF92FF9286
:1002B000CF932091B3053091B40582179307E8F5E9
:1002C0004B01AA24BB24C82DC52ED62EE72EFF2411
:1002D000BC2DA42F2091B905222361F0829E4001FC
:1002E0001124C92D2C9D60011124BD2D249FF001E6
:1002F0001124AF2FE091BF05E090BA05F090BB0547
:100300003091BC05E31323C09C01220F331F820FE1
:10031000931F8E0D9F1DE091BC05E80FF92FF11D75
:10032000C083E091BD05E80FF92FF11DB083209146
:10033000BE05820F911DFC01A083CF91FF90EF902D
:10034000DF90CF90BF90AF909F908F900895880FCF
:10035000991F880F991F8E0D9F1D472F55276627C0
:100360007727222349F030E0249F7001259FF00C6D
:10037000349FF00C11244F2DE80FF92FF11D40830D
:10038000CACFAF92BF92CF92DF92EF92FF920F93BC
:100390001F93CF93DF936C017B018B01040F151F1B
:1003A000EB015E01AE18BF08C017D10759F0699183
:1003B000D601ED91FC910190F081E02DC6010995E7
:1003C000892B79F7C501DF91CF911F910F91FF9094
:1003D000EF90DF90CF90BF90AF900895FC01538DC8
:1003E000448D252F30E0842F90E0821B930B54170F
:1003F00010F0CF96089501970895FC01918D828D9C
:10040000981761F0A28DAE0FBF2FB11D5D968C9134
:10041000928D9F5F9F73928F90E008958FEF9FEF73
:100420000895FC01918D828D981731F0828DE80F2F
:10043000F11D858D90E008958FEF9FEF0895FC01E9
:10044000918D228D892F90E0805C9F4F821B9109B6
:100450008F739927089584E195E00E941F0221E09F
:10046000892B09F420E0822F089580E090E0892B09
:1004700029F00E942B0281110C9400000895FC01C8
:10048000A48DA80FB92FB11DA35ABF4F2C91848DF5
:1004900090E001968F739927848FA689B7892C9352
:1004A000A089B1898C91837080648C93938D848DA5
:1004B000981306C00288F389E02D80818F7D8083A8
:1004C0000895EF92FF920F931F93CF93DF93EC0168
:1004D00081E0888F9B8D8C8D98131AC0E889F989EB
:1004E000808185FF15C09FB7F894EE89FF896083EE
:1004F000E889F98980818370806480839FBF81E06F
:1005000090E0DF91CF911F910F91FF90EF900895B0
:10051000F62E0B8D10E00F5F1F4F0F731127E02E8B
:100520008C8D8E110CC00FB607FCFACFE889F989C3
:10053000808185FFF5CFCE010E943F02F1CFEB8D88
:10054000EC0FFD2FF11DE35AFF4FF0829FB7F89497
:100550000B8FEA89FB8980818062CFCFCF93DF93B5
:10056000EC01888D8823B9F0AA89BB89E889F989CB
:100570008C9185FD03C0808186FD0DC00FB607FC00
:10058000F7CF8C9185FFF2CF808185FFEDCFCE0133
:100590000E943F02E9CFDF91CF910895CF93DF937F
:1005A00090E0FC01EA57FE4F24918C559E4FFC01D0
:1005B00084918823D1F090E0880F991FFC01E859BD
:1005C000FF4FA591B491FC01E656FE4FC591D49121
:1005D00061110EC09FB7F8948C91E22FE0958E23A5
:1005E0008C932881E223E8839FBFDF91CF91089508
:1005F0008FB7F894EC91E22BEC938FBFF6CF3FB717
:10060000F8948091FF0490910005A0910105B091AC
:10061000020526B5A89B05C02F3F19F00196A11D24
:10062000B11D3FBFBA2FA92F982F8827BC01CD013C
:10063000620F711D811D911D42E0660F771F881F9B
:10064000991F4A95D1F708950F931F93CF93DF9386
:10065000CDB7DEB729970FB6F894DEBF0FBECDBF7A
:100660008091BA059091BB05892B09F47CC00E944A
:10067000FF020091C0051091C1052091C205309183
:10068000C305601771078207930740F46093C005A4
:100690007093C1058093C2059093C3050091C00576
:1006A0001091C1052091C2053091C305601B710BEB
:1006B000820B930B6C32714081059105C0F2F89466
:1006C0008091B5059091B6059A838983E091BA052A
:1006D000F091BB05DF011196808189879091B1056A
:1006E000E091C405F091C5058091C605992309F4F0
:1006F00045C09081982B98879081809589238F831E
:100700008F818C8388E08B8358856F8149853B81FD
:100710002C8189819A81508347FD252F3A9520832A
:10072000262F39F0441F00C000006083000000C085
:10073000F2CF38E04D9160830000019761F7F093AC
:10074000C505E093C40549873B832C839A8389833D
:1007500078940E94FF026093C0057093C105809356
:10076000C2059093C30529960FB6F894DEBF0FBE5D
:10077000CDBFDF91CF911F910F9108959081982B5C
:1007800098879081809589238F838F818E8388E0DD
:100790008D8358856F8149853D812E8189819A811C
:1007A000508347FD252F00C000C0208300C000C03B
:1007B00000C000C000C060830000262F3A9541F0C1
:1007C000441F000000C000C000C000C000C0E8CF4F
:1007D00038E04D9100C0608300C0019709F7F093A5
:1007E000C505E093C40549873D832E83AFCF8F9223
:1007F0009F92AF92BF92CF92DF92EF92FF926B01E6
:100800007C010E94FF024B015C01C114D104E10490
:10081000F104B9F00E94FF02681979098A099B095D
:10082000683E73408105910580F321E0C21AD1082A
:10083000E108F10888EE880E83E0981EA11CB11C27
:10084000E4CFFF90EF90DF90CF90BF90AF909F905C
:100850008F900895982F877F873669F0892F8F7E34
:10086000823649F0973739F081E0943731F0993783
:1008700021F080E0089581E008950895E1EBF5E02E
:100880004481558170E060E0818592850C94690B0C
:10089000CF92DF92EF92FF92CF93DF936B017C01B7
:1008A0000E943E04CEE4D1E08981B701A60190E028
:1008B0000E9450010E9424036EE170E080E090E00D
:1008C0000E94F703249682E0CE36D80769F7DF91BD
:1008D000CF91FF90EF90DF90CF9008958F929F92ED
:1008E000AF92BF92EF92FF920F931F93CF93DF933C
:1008F0004B015C018AE0E82EF12CD0E0C0E00E94C0
:100900003E048E01B501A401C8010E9450010D5F93
:100910001F4F08341105B4F30E94240362E370E012
:1009200080E090E00E94F7032196C330D10539F7AB
:1009300081E0E81AF10809F7DF91CF911F910F913B
:10094000FF90EF90BF90AF909F908F900895FC0123
:1009500001900020E9F73197AF01481B590BBC010A
:1009600084E195E00C94C10180E892E00C94A70426
:10097000CF93DF93682F84E195E00E946102EC0140
:100980000E94B4048C0F9D1FDF91CF9108958F9228
:100990009F92AF92BF920F931F93CF93DF93CDB7E8
:1009A000DEB7A1970FB6F894DEBF0FBECDBF19A278
:1009B000423008F44AE08E010F5D1F4F842E912CC7
:1009C000B12CA12CA50194010E94E609E62FB901E2
:1009D000CA01EA30F4F4E05DD801EE938D01232BD7
:1009E000242B252B79F790E080E0109719F0CD01AA
:1009F0000E94A704A1960FB6F894DEBF0FBECDBF2C
:100A0000DF91CF911F910F91BF90AF909F908F90EA
:100A10000895E95CE1CFCF92DF92EF92FF92CF93FE
:100A2000DF936B017C016DE284E195E00E9461023D
:100A3000EC0166277727CB016C197D098E099F0988
:100A40004AE00E94C7048C0F9D1FDF91CF91FF9059
:100A5000EF90DF90CF900895CF93DF930E94A7048B
:100A6000EC010E94B4048C0F9D1FDF91CF9108957B
:100A70001F920F920FB60F9211242F933F934F9313
:100A80005F936F937F938F939F93AF93BF93EF93F6
:100A9000FF9384E195E00E943F02FF91EF91BF91A7
:100AA000AF919F918F917F916F915F914F913F9106
:100AB0002F910F900FBE0F901F9018951F920F92BD
:100AC0000FB60F9211242F938F939F93EF93FF9361
:100AD000E0912405F09125058081E0912A05F091AF
:100AE0002B0582FD1BC0908180912D058F5F8F7338
:100AF00020912E05821741F0E0912D05F0E0EC5E8B
:100B0000FA4F958F80932D05FF91EF919F918F91D3
:100B10002F910F900FBE0F901F9018958081F4CFEA
:100B20001F920F920FB60F9211242F933F938F9322
:100B30009F93AF93BF938091FB049091FC04A0918D
:100B4000FD04B091FE043091FA0423E0230F2D3709
:100B500058F50196A11DB11D2093FA048093FB0462
:100B60009093FC04A093FD04B093FE048091FF04D5
:100B700090910005A0910105B09102050196A11D7B
:100B8000B11D8093FF0490930005A0930105B093DD
:100B90000205BF91AF919F918F913F912F910F903F
:100BA0000FBE0F901F90189526E8230F0296A11DE7
:100BB000B11DD2CF109217051092160588EE93E062
:100BC000A0E0B0E08093180590931905A0931A0552
:100BD000B0931B0582E792E090931505809314056E
:100BE00085EC90E0909321058093200584EC90E0C3
:100BF000909323058093220580EC90E09093250547
:100C00008093240581EC90E090932705809326053E
:100C100082EC90E0909329058093280586EC90E083
:100C200090932B0580932A0510922D0510922E0586
:100C300010922F05109230051092B2051092B9054E
:100C40001092C0051092C1051092C2051092C30502
:100C500081E08093BF058093BC051092BD0592E0B2
:100C60009093BE058093B10588ED90E09093B60512
:100C70008093B5050E943C0A9093BB058093BA050A
:100C8000009781F128EDFC0111922A95E9F788E49B
:100C900090E09093B4058093B30582E090E0909348
:100CA000B8058093B7058091B205882339F061E0DB
:100CB00082E00E94CE0282E00E940801E6EAF1E0B2
:100CC000E491F0E0EE0FFF1FE656FE4F8591949100
:100CD0009093C5058093C405E8E8F1E0E491E093C2
:100CE000C60508951092B6051092B5051092B40588
:100CF0001092B305D2CFCF93DF93CDB7DEB72E9747
:100D00000FB6F894DEBF0FBECDBF789484B5826075
:100D100084BD84B5816084BD85B5826085BD85B59F
:100D2000816085BD80916E00816080936E0010921D
:100D30008100809181008260809381008091810098
:100D40008160809381008091800081608093800029
:100D50008091B10084608093B1008091B000816087
:100D60008093B00080917A00846080937A008091B3
:100D70007A00826080937A0080917A00816080930B
:100D80007A0080917A00806880937A001092C10086
:100D9000E0912405F091250582E08083E091200513
:100DA000F09121051082E0912205F091230580E168
:100DB000808310922C05E0912805F091290586E0AA
:100DC0008083E0912605F0912705808180618083F2
:100DD000E0912605F0912705808188608083E0916D
:100DE0002605F0912705808180688083E0912605A3
:100DF000F091270580818F7D80838091B705909148
:100E0000B80597FD2DC061E00E94CE028091B70524
:100E10000E94080181E08093B2056091B9056932B2
:100E200041F12091BA053091BB056150E1F070E0CD
:100E30008FEF98E20E94D209F9014091B5055091D7
:100E4000B605CF01821B930B8417950778F4408178
:100E5000469FC001479F900D112490833196EDCF9E
:100E60001092B205DACF70E060E0E6CF89E28093BD
:100E7000B9050E943E040E94240340E050E06FEF59
:100E800070E090E080E00E9450010E9424036AEF2D
:100E900070E080E090E00E94F7030E943E040E9410
:100EA00024030E94B40483E892E00E942C050E946F
:100EB000B40481EA92E00E942C0580EB92E00E944B
:100EC0002C0582EC92E00E942C0585ED92E00E94B8
:100ED0002C0587EE92E00E942C058BEF92E00E9499
:100EE0002C0581E193E00E942C0584E293E00E94AE
:100EF0002C050E94B40486E393E00E942C0581E453
:100F000093E00E942C0581E593E00E942C0583E686
:100F100093E00E942C0584E793E00E942C0586E86C
:100F200093E00E942C058AE993E00E942C058BEA4D
:100F300093E00E942C050E94B4048BEB93E00E9486
:100F40002C0581EC93E00E942C050E94B4049E01C4
:100F50002B5F3F4F3E832D8384E195E00E941F026B
:100F6000181619060CF0DBC184E195E00E94FD0122
:100F7000082E000C990B0E94610BE09113058A303A
:100F800039F08D3029F08C3219F0803209F0B9C176
:100F9000EE2311F3F0E0ED5FFA4F10828BED93E05A
:100FA0000E94A70483E095E00E942C0510910305A0
:100FB000133709F0F2C08091040581112DC18EEE26
:100FC00093E00E942C0560E070E08FEF90E00E94BB
:100FD000480460E07FEF80E090E00E9448046FEFFB
:100FE00070E080E090E00E94480460E07FEF8FEFC7
:100FF00090E00E9448046FEF7FEF80E090E00E9455
:1010000048046FEF7FEF8FEF90E00E9448046FE796
:101010007FE78FE790E00E946E0460E070E08FE76A
:1010200090E00E946E046FE770E080E090E00E9424
:101030006E04C12CD12C7601812C912C540110E02E
:1010400000E0C501B40128E430E040E050E00E9437
:10105000080A2C0D3D1DAAEFB5E00E94270ADC010D
:10106000CB019058AF4FBF4FCD01BB2797FDB09537
:10107000AB2F8E3F41E0940708F06AC0482F8F3FA6
:10108000910508F484C0EEEFE81B8E2F60E04FEF6F
:10109000282E312CC101B0E0A0E0DC01992788277F
:1010A0006B871C866B847C842301712C612C8429C2
:1010B0009529A629B729642E712CA30170E060E060
:1010C000762F652F542F4427842B952BA62BB72BD7
:1010D00089839A83AB83BC83DE011196ED91F0E0A6
:1010E000EE58FF4F2491CD010197FC0120834D80E4
:1010F0005E804A165B0691F749815A816B817C813B
:10110000C8010E9450010F5F1F4F2FEFA21AB20AB1
:101110000834110509F095CF0E94240365E070E0C2
:1011200080E090E00E94F7033FEFD31AE30AF30A4E
:10113000C114D10443E0E406F10409F07DCF0E941C
:101140003E040E94240383E094E00E942C0586C0A4
:101150008C3FF3E09F0768F48D3F42E0940728F44A
:1011600062E0680F4FEF80E093CF4CEF481B6FEFCA
:10117000FACF8A3FE5E09E0769F06AEF681B8B3F74
:10118000F4E09F0740F48C5F6FEF40E081CF60E0B8
:101190008FEF7ECF60E040E0FBCF1136E9F5B090F5
:1011A00004058B2D0E942A04811107C086E194E07A
:1011B0000E942C0580E494E0C8CF8EE98B0DC12CF1
:1011C000D12C7601883160F490E0FC01EE0FFF1F16
:1011D000E80FF91FEA5FFE4FC080D180E280F12C5A
:1011E0000EE411E0F8018181B701A60190E00E94B0
:1011F00050010C5F1F4F2EE6422E22E0522E401669
:10120000510681F70E94240386E694E00E94A70419
:101210008B2D0E94B80422C0812F0E942A048111C4
:1012200003C081E894E091CF84E095E00E94AC098E
:101230009C01215031096C01990FEE08FF082834F8
:101240003105A8F08DE994E00E94A704F7FE09C0DB
:10125000C701B6010E940B050E94B4041092130549
:101260007BCE4AE0C701B6010E94C704F5CF2EE944
:10127000210F812C912C5401283170F430E0F901B8
:10128000EE0FFF1FE20FF31FEA5FFE4F2081318157
:1012900042814901A42EB12C815024E0829FF001AB
:1012A0001124E25BFE4F01818CEB94E00E94A704C5
:1012B0004AE0C701B6010E94C7048EEC94E00E9488
:1012C000A704602F70E090E080E04AE00E94C7042D
:1012D0000E94B404B501A401802F90E00E94500147
:1012E0000E94240389ED94E00E94A7044AE0C7010C
:1012F000B6010E94C70483E794E00E94A704812FEF
:1013000088CFEF3048F4AE2FB0E0AD5FBA4F8C938A
:10131000EF5FE093130520CE82EE94E016CF80E0DD
:1013200090E0892B09F418CE0E942B02882309F43F
:1013300013CE0E94000010CE8091BA059091BB059B
:101340000E94D80A8091B7059091B80597FD03C017
:1013500060E00C94CE020895FC0188279927E89458
:1013600021912032E9F3293010F02E30C8F32B32CE
:1013700041F02D3239F4689404C00E94CA09820FEA
:10138000911D219120532A30C0F31EF49095819530
:101390009F4F08957AE0979F902D879F802D910D04
:1013A00011240895AA1BBB1B51E107C0AA1FBB1F34
:1013B000A617B70710F0A61BB70B881F991F5A95E1
:1013C000A9F780959095BC01CD010895A1E21A2E50
:1013D000AA1BBB1BFD010DC0AA1FBB1FEE1FFF1FD9
:1013E000A217B307E407F50720F0A21BB30BE40B29
:1013F000F50B661F771F881F991F1A9469F7609570
:101400007095809590959B01AC01BD01CF01089529
:10141000052E97FB1EF400940E941F0A57FD07D06B
:101420000E94E60907FC03D04EF40C941F0A509565
:101430004095309521953F4F4F4F5F4F08959095C0
:101440008095709561957F4F8F4F9F4F0895A29F14
:10145000B001B39FC001A39F700D811D1124911D88
:10146000B29F700D811D1124911D0895EE0FFF1F75
:101470000590F491E02D09940F931F93CF93DF9380
:101480008230910510F482E090E0E091C905F0917E
:10149000CA0530E020E0B0E0A0E0309799F42115D3
:1014A000310509F44AC0281B390B24303105D8F521
:1014B0008A819B816115710589F1FB019383828388
:1014C000FE0111C0408151810281138148175907E3
:1014D000E0F04817590799F4109761F012960C93B1
:1014E000129713961C933296CF01DF91CF911F91E3
:1014F0000F9108950093C9051093CA05F4CF2115E3
:10150000310551F04217530738F0A901DB019A0168
:10151000BD01DF01F801C1CFEF01F9CF9093CA05FA
:101520008093C905CDCFFE01E20FF31F8193919304
:101530002250310939832883D7CF2091C7053091B4
:10154000C805232B41F4209102013091030130930F
:10155000C8052093C7052091000130910101211594
:10156000310541F42DB73EB740910401509105017A
:10157000241B350BE091C705F091C805E217F3076E
:10158000A0F42E1B3F0B2817390778F0AC014E5FF3
:101590005F4F2417350748F04E0F5F1F5093C80563
:1015A0004093C705819391939FCFF0E0E0E09CCFFB
:1015B000CF93DF930097E9F0FC01329713821282F8
:1015C000A091C905B091CA05ED0130E020E0109767
:1015D000A1F420813181820F931F2091C7053091A2
:1015E000C8052817390709F061C0F093C805E093D2
:1015F000C705DF91CF910895EA01CE17DF07E8F51F
:101600004A815B819E0141155105B1F7E901FB83D8
:10161000EA8349915991C40FD51FEC17FD0761F476
:10162000808191810296840F951FE90199838883B7
:10163000828193819B838A83F0E0E0E012968D9112
:101640009C9113970097B9F52D913C911197CD017D
:101650000296820F931F2091C7053091C805281765
:10166000390739F6309751F51092CA051092C9051D
:10167000B093C805A093C705BCCFD383C283408174
:101680005181840F951FC817D90761F44E5F5F4FD2
:1016900088819981480F591F518340838A819B819A
:1016A000938382832115310509F0B0CFF093CA05E9
:1016B000E093C9059ECFFD01DC01C0CF13821282E9
:1016C000D7CF9111089581548A5108F4805E855ACC
:1016D0000895DC0101C06D9341505040E0F708953A
:1016E00010E0CDEDD0E004C0FE010E94360A219644
:0A16F000CE3DD107C9F7F894FFCFF3
:1016FA000000CB058000FF00000000000000000091
:10170A00000000000000FF000000000000000000D0
:10171A0000000000000000000000000000000000BF
:10172A000000000000000000FF000000FFFF0000B2
:10173A000000000000FFFFFF00000000FFFF014261
:10174A000000024301000344020004450300054669
:10175A000400064705000741000108400101093F4E
:10176A0002010A3E03010B3D04010C3C05010D3642
:10177A0000020E3701020F38020210390302113A31
:10178A000402123B05021335000314340103153316
:10179A000203163203031731040318300503192A0A
:1017AA0000041A2B01041B2C02041C2D03041D2EF9
:1017BA0004041E2F05041F290005202801052127DE
:1017CA0002052226030523250405242405052505EB
:1017DA000006260401062703020628020306290139
:1017EA0004062A0005062B0600072C0701072D0808
:1017FA0002072E0903072F0A0407300B05073111C8
:10180A00000832100108330F0208340E0308350DA0
:10181A000408360C0508371200093813010939146F
:10182A0002093A1503093B1604093C1705093D1D2F
:10183A00000A3E1C010A3F1B020A401A030A411908
:10184A00040A4218050A431E000B441F010B4520D7
:10185A00020B4621030B4722040B4823050B000009
:10186A0000006102C101EE01AE021F02FD01110278
:10187A000D0A005753323831322055415254205301
:10188A007465756572756E67206265726569742E16
:10189A000045696E7A656C6E65204C4544733A0062
:1018AA0072323720203D204C454420323720726F57
:1018BA00740067312020203D204C454420312067A8
:1018CA007275656E0062352020203D204C4544200B
:1018DA003520626C61750077373220203D204C45F7
:1018EA0044203732207765697373007431302020C1
:1018FA003D204C454420313020747565726B697304
:10190A000079333220203D204C4544203332206771
:10191A00656C62006F333220203D204C45442033F1
:10192A00322061757300416C6C65204C4544733AF2
:10193A000061722020203D20616C6C6520726F74FA
:10194A000061672020203D20616C6C6520677275FC
:10195A00656E0061622020203D20616C6C6520620A
:10196A006C61750061772020203D20616C6C6520D8
:10197A0077656973730061742020203D20616C6C67
:10198A006520747565726B69730061792020203D4A
:10199A0020616C6C652067656C6200616F20202095
:1019AA003D20616C6C65206175730044656D6F3A0A
:1019BA000073202020203D20537472616E64746588
:1019CA007374207374617274656E0042656665682B
:1019DA006C20656D7066616E67656E3A200053749F
:1019EA006172746520537472616E64746573742EC7
:1019FA002E2E00537472616E64746573742066656A
:101A0A00727469672E004665686C65723A20756E55
:101A1A006775656C746967657220416C6C652D4CDD
:101A2A004544732D4661726262656665686C2E0074
:101A3A00426569737069656C653A2061722C206130
:101A4A00672C2061622C2061772C2061742C206124
:101A5A00792C20616F004F4B3A20616C6C65204CE9
:101A6A004544732067657365747A742061756620CE
:101A7A00004665686C65723A20756E62656B616EC8
:101A8A006E7465722042656665686C2E00466568EC
:101A9A006C65723A204C45442D4E756D6D65722009
:101AAA00756E6775656C7469673A20004D61707070
:101ABA00696E673A206C6F67697363682000202D2E
:101ACA003E20506978656C20004F4B3A204C4544C3
:101ADA0020004665686C65723A2042656665686CE6
:0A1AEA00207A75206C616E672E00F3
:00000001FF
