:100000000C945E000C9486000C9486000C94860080
:100010000C9486000C9486000C9486000C94860048
:100020000C9486000C9486000C9486000C94860038
:100030000C9486000C9486000C9486000C94860028
:100040000C9414050C9486000C94E2040C94BC04EB
:100050000C9486000C9486000C9486000C94860008
:100060000C9486000C9486000000000024002700F9
:100070002A0000000008000201000003040700003D
:10008000000000000000010204081020408001026E
:1000900004081020010204081020000000002500C0
:1000A00028002B00040404040404040402020202D5
:1000B00002020303030303035E05FA0711241FBEB4
:1000C000CFEFD8E0DEBFCDBF14E0A0E0B1E0EEE0BE
:1000D000F3E102C005900D92AC31B107D9F724E0ED
:1000E000ACE1B4E001C01D92A43EB207E1F710E01C
:1000F000CDE5D0E004C02197FE010E944008CC3538
:10010000D107C9F70E94FF050C947A090C940000EE
:1001100090E0FC01EE58FF4F2491FC01EA57FF4F9D
:100120003491FC01EC55FF4FE491EE23B9F022230A
:1001300039F02330F1F098F4213009F1223019F12F
:10014000F0E0EE0FFF1FE656FF4FA591B4918FB779
:10015000F894EC9130953E233C938FBF089527305F
:10016000A9F02830C9F0243059F7809180008F7DA4
:1001700003C0809180008F7780938000E1CF84B5A9
:100180008F7784BDDDCF84B58F7DFBCF8091B000AC
:100190008F778093B000D4CF8091B0008F7DF9CF5E
:1001A0008F929F92AF92BF92CF92DF92EF92FF9287
:1001B000CF934B01AA24BB24C82DC52ED62EE72EE3
:1001C000FF24BC2DA42F2091D204222361F0829E13
:1001D00040011124C92D2C9D60011124BD2D249FA7
:1001E000F0011124AF2FE091D804E090D304F090F7
:1001F000D4043091D504E31323C09C01220F331F94
:10020000820F931F8E0D9F1DE091D504E80FF92FEB
:10021000F11DC083E091D604E80FF92FF11DB083E2
:100220002091D704820F911DFC01A083CF91FF90F4
:10023000EF90DF90CF90BF90AF909F908F900895F8
:10024000880F991F880F991F8E0D9F1D472F5527C7
:1002500066277727222349F030E0249F7001259FED
:10026000F00C349FF00C11244F2DE80FF92FF11DE5
:100270004083CACFAF92BF92CF92DF92EF92FF92AC
:100280000F931F93CF93DF936C017B018B01040FBE
:10029000151FEB015E01AE18BF08C017D10759F05A
:1002A0006991D601ED91FC910190F081E02DC6019C
:1002B0000995892B79F7C501DF91CF911F910F9196
:1002C000FF90EF90DF90CF90BF90AF900895FC012A
:1002D000538D448D252F30E0842F90E0821B930BAB
:1002E000541710F0CF96089501970895FC01918D51
:1002F000828D981761F0A28DAE0FBF2FB11D5D9654
:100300008C91928D9F5F9F73928F90E008958FEFF5
:100310009FEF0895FC01918D828D981731F0828DA9
:10032000E80FF11D858D90E008958FEF9FEF089500
:10033000FC01918D228D892F90E0805C9F4F821B64
:1003400091098F73992708958DE294E00E94980196
:1003500021E0892B09F420E0822F089580E090E0CD
:10036000892B29F00E94A40181110C9400000895AA
:10037000FC01A48DA80FB92FB11DA35ABF4F2C911A
:10038000848D90E001968F739927848FA689B78911
:100390002C93A089B1898C91837080648C93938D08
:1003A000848D981306C00288F389E02D80818F7DAB
:1003B00080830895EF92FF920F931F93CF93DF9363
:1003C000EC0181E0888F9B8D8C8D98131AC0E88991
:1003D000F989808185FF15C09FB7F894EE89FF8960
:1003E0006083E889F98980818370806480839FBFFE
:1003F00081E090E0DF91CF911F910F91FF90EF90FE
:100400000895F62E0B8D10E00F5F1F4F0F7311270D
:10041000E02E8C8D8E110CC00FB607FCFACFE88948
:10042000F989808185FFF5CFCE010E94B801F1CF17
:10043000EB8DEC0FFD2FF11DE35AFF4FF0829FB7BC
:10044000F8940B8FEA89FB8980818062CFCFCF93AC
:10045000DF93EC01888D8823B9F0AA89BB89E889EC
:10046000F9898C9185FD03C0808186FD0DC00FB692
:1004700007FCF7CF8C9185FFF2CF808185FFEDCF10
:10048000CE010E94B801E9CFDF91CF910895CF93BB
:10049000DF9390E0FC01EA57FF4F24918C559F4F6A
:1004A000FC0184918823D1F090E0880F991FFC0112
:1004B000E859FF4FA591B491FC01E656FF4FC59155
:1004C000D49161110EC09FB7F8948C91E22FE09502
:1004D0008E238C932881E223E8839FBFDF91CF9105
:1004E00008958FB7F894EC91E22BEC938FBFF6CF81
:1004F0003FB7F89480911D0490911E04A0911F04B1
:10050000B091200426B5A89B05C02F3F19F0019695
:10051000A11DB11D3FBFBA2FA92F982F8827BC015D
:10052000CD01620F711D811D911D42E0660F771F85
:10053000881F991F4A95D1F708950F931F93CF9362
:10054000DF93CDB7DEB729970FB6F894DEBF0FBEA5
:10055000CDBF8091D3049091D404892B09F47CC041
:100560000E9478020091D9041091DA042091DB04F2
:100570003091DC04601771078207930740F46093A1
:10058000D9047093DA048093DB049093DC04009127
:10059000D9041091DA042091DB043091DC04601B53
:1005A000710B820B930B6C32714081059105C0F287
:1005B000F8948091CE049091CF049A838983E0913E
:1005C000D304F091D404DF01119680818987909142
:1005D000CA04E091DD04F091DE048091DF049923E8
:1005E00009F445C09081982B988790818095892344
:1005F0008F838F818C8388E08B8358856F814985B9
:100600003B812C8189819A81508347FD252F3A9522
:100610002083262F39F0441F00C0000060830000B3
:1006200000C0F2CF38E04D9160830000019761F780
:10063000F093DE04E093DD0449873B832C839A83A7
:10064000898378940E9478026093D9047093DA04C5
:100650008093DB049093DC0429960FB6F894DEBFF8
:100660000FBECDBFDF91CF911F910F910895908163
:10067000982B98879081809589238F838F818E8393
:1006800088E08D8358856F8149853D812E818981E0
:100690009A81508347FD252F00C000C0208300C0F1
:1006A00000C000C000C000C060830000262F3A9543
:1006B00041F0441F000000C000C000C000C000C0E6
:1006C000E8CF38E04D9100C0608300C0019709F782
:1006D000F093DE04E093DD0449873D832E83AFCFA2
:1006E000982F877F873669F0892F8F7E823649F071
:1006F000973739F081E0943731F0993721F080E075
:10070000089581E008950895FC0101900020E9F723
:100710003197AF01481B590BBC018DE294E00C945A
:100720003A0180E892E00C948403CF93DF93682F22
:100730008DE294E00E94DA01EC010E9491038C0F9B
:100740009D1FDF91CF9108958F929F92AF92BF929C
:100750000F931F93CF93DF93CDB7DEB7A1970FB65B
:10076000F894DEBF0FBECDBF19A2423008F44AE0B4
:100770008E010F5D1F4F842E912CB12CA12CA50151
:1007800094010E941E08E62FB901CA01EA30F4F470
:10079000E05DD801EE938D01232B242B252B79F7D7
:1007A00090E080E0109719F0CD010E948403A1969B
:1007B0000FB6F894DEBF0FBECDBFDF91CF911F9172
:1007C0000F91BF90AF909F908F900895E95CE1CF1B
:1007D000CF92DF92EF92FF92CF93DF9397FF1BC0F0
:1007E0006B017C016DE28DE294E00E94DA01EC0184
:1007F00066277727CB016C197D098E099F094AE08E
:100800000E94A4038C0F9D1FDF91CF91FF90EF906A
:10081000DF90CF9008954AE0DF91CF91FF90EF9065
:10082000DF90CF900C94A403CF93DF930E948403B6
:10083000EC010E9491038C0F9D1FDF91CF910895D1
:10084000CF92DF92EF92FF920F931F93CF93DF939C
:10085000C09121048C2F0E94700381110CC083E889
:1008600092E0DF91CF911F910F91FF90EF90DF9079
:10087000CF900C94140400912A0410912B04C80109
:10088000019788349105C0F086EA92E00E948403C3
:1008900060912A0470912B04072E000C880B990B91
:1008A0000E94E803DF91CF911F910F91FF90EF908D
:1008B000DF90CF900C949103C256C12CD12C7601BD
:1008C000C83160F4D0E0FE01EE0FFF1FEC0FFD1FFA
:1008D000EA5FFE4FC080D180E280F12CEFEFE00FA5
:1008E00084E0E89FF0011124E25BFE4FC18185ECBA
:1008F00092E00E948403B801110F880B990B4AE023
:100900000E94A40387ED92E00E9484036C2F70E0A4
:1009100090E080E04AE00E94A4030E9491038C2FA3
:1009200090E02091CC043091CD048217930720F4FD
:10093000B701A6010E94D0000E949D0282EE92E0C3
:100940000E94840360912A0470912B04072E000CEE
:10095000880B990B0E94E8038BEE92E00E948403BF
:1009600080912104DF91CF911F910F91FF90EF9023
:10097000DF90CF900C9495031F920F920FB60F92B9
:1009800011242F933F934F935F936F937F938F9394
:100990009F93AF93BF93EF93FF938DE294E00E94F8
:1009A000B801FF91EF91BF91AF919F918F917F918E
:1009B0006F915F914F913F912F910F900FBE0F90CC
:1009C0001F9018951F920F920FB60F9211242F931C
:1009D0008F939F93EF93FF93E0913D04F0913E043A
:1009E0008081E0914304F091440482FD1BC090811A
:1009F000809146048F5F8F7320914704821741F0E6
:100A0000E0914604F0E0E35DFB4F958F8093460450
:100A1000FF91EF919F918F912F910F900FBE0F90AB
:100A20001F9018958081F4CF1F920F920FB60F92EE
:100A300011242F933F938F939F93AF93BF938091F4
:100A4000220490912304A0912404B09125043091B4
:100A50001C0423E0230F2D3758F50196A11DB11D6D
:100A600020931C048093220490932304A0932404D5
:100A7000B093250480911D0490911E04A0911F0441
:100A8000B09120040196A11DB11D80931D04909387
:100A90001E04A0931F04B0932004BF91AF919F91B7
:100AA0008F913F912F910F900FBE0F901F9018952F
:100AB00026E8230F0296A11DB11DD2CF109230045B
:100AC00010922F0488EE93E0A0E0B0E08093310410
:100AD00090933204A0933304B093340482E792E0FD
:100AE00090932E0480932D0485EC90E090933A042B
:100AF0008093390484EC90E090933C0480933B0411
:100B000080EC90E090933E0480933D0481EC90E073
:100B10009093400480933F0482EC90E090934204D1
:100B20008093410486EC90E09093440480934304C6
:100B300010924604109247041092480410924904FF
:100B40001092CB041092D2041092D9041092DA04BD
:100B50001092DB041092DC0481E08093D80480932F
:100B6000D5041092D60492E09093D7048093CA04DF
:100B700088ED90E09093CF048093CE040E944608C5
:100B80009093D4048093D304009781F128EDFC0165
:100B900011922A95E9F788E490E09093CD04809330
:100BA000CC0482E090E09093D1048093D0048091B3
:100BB000CB04882339F061E082E00E94470282E0A2
:100BC0000E948800E6EAF0E0E491F0E0EE0FFF1FFB
:100BD000E656FF4F859194919093DE048093DD0457
:100BE000E8E8F0E0E491E093DF0408951092CF0488
:100BF0001092CE041092CD041092CC04D2CF7894EF
:100C000084B5826084BD84B5816084BD85B5826011
:100C100085BD85B5816085BD80916E0081608093C2
:100C20006E0010928100809181008260809381002B
:100C3000809181008160809381008091800081603B
:100C4000809380008091B10084608093B100809196
:100C5000B00081608093B00080917A0084608093BE
:100C60007A0080917A00826080937A0080917A0085
:100C7000816080937A0080917A00806880937A0006
:100C80001092C100E0913D04F0913E0482E0808327
:100C9000E0913904F0913A041082E0913B04F09124
:100CA0003C0480E1808310924504E0914104F0917E
:100CB000420486E08083E0913F04F091400480810B
:100CC00080618083E0913F04F091400480818860DE
:100CD0008083E0913F04F0914004808180688083AC
:100CE000E0913F04F091400480818F7D808380916A
:100CF000D0049091D10497FD2DC061E00E9447027D
:100D00008091D0040E94880081E08093CB046091A0
:100D1000D2042091D3043091D404693221F161507E
:100D2000E1F070E08FEF98E20E940A08F90140912B
:100D3000CE045091CF04CF01821B930B84179507EB
:100D400078F44081469FC001479F900D1124908305
:100D50003196EDCF1092CB04DACF70E060E0E6CFB1
:100D600089E28093D2044091CE045091CF0470E088
:100D700060E08091D3049091D4040E9473090E9492
:100D80009D028091CC049091CD04892B41F040E0EC
:100D900050E06FEF70E090E080E00E94D0000E9491
:100DA0009D020E9478024B015C0184EFC82EDD2475
:100DB000D394E12CF12C0E947802681979098A09F0
:100DC0009B09683E734081059105A8F321E0C21A92
:100DD000D108E108F10888EE880E83E0981EA11C76
:100DE000B11CC114D104E104F10429F74091CE04EF
:100DF0005091CF0470E060E08091D3049091D404CE
:100E00000E9473090E949D020E94910389EF92E063
:100E10000E94140487E193E00E94140480E293E0AE
:100E20000E94140481E393E00E94140483E493E09D
:100E30000E94140484E593E00E94140487E693E082
:100E40000E9414048CE793E00E9414048EE893E05F
:100E50000E9414040E9491038FE993E00E941404FD
:100E6000DAE000E010E0FF24F3948DE294E00E94C9
:100E70009801181619060CF080C08DE294E00E94CB
:100E80007601082E000C990B0E946B09C82F2FB712
:100E9000F8948091220490912304A0912404B091AD
:100EA00025042FBF8093260490932704A093280441
:100EB000B093290489EE93E00E94840385EF93E0C8
:100EC000CA3021F0CD30D1F488EF93E00E941404B1
:100ED0008C2F0E9470038823A9F0C09321041092E4
:100EE0002B0410922A04F0922C048BEF93E00E94C2
:100EF0008403809121040E949503B7CF8C2F0E9418
:100F00009503E6CF80912C04882309F4AECF40915D
:100F10002A0450912B048C2FCC0F990BC0978A3048
:100F20009105E0F4D49F9001D59F300D1124820FDC
:100F3000931F90932B0480932A048BE094E00E94EB
:100F4000840360912A0470912B04072E000C880BF7
:100F5000990B0E94E8030E94910387CF141615068F
:100F60000CF083CF0E9420041092210410922B04D5
:100F700010922A0410922C0478CF80912C0488239C
:100F800069F180912A0490912B041816190634F502
:100F90002FB7F8948091220490912304A091240407
:100FA000B09125042FBF40912604509127046091F1
:100FB000280470912904841B950BA60BB70B873965
:100FC0009105A105B10550F00E9420041092210462
:100FD00010922B0410922A0410922C040115110572
:100FE00009F443CF0E94A401882309F43ECF0E9454
:100FF00000003BCF8091D3049091D4040E94E2087A
:101000008091D0049091D10497FD03C060E00C94CE
:1010100047020895AA1BBB1B51E107C0AA1FBB1FB3
:10102000A617B70710F0A61BB70B881F991F5A9574
:10103000A9F780959095BC01CD010895A1E21A2EE3
:10104000AA1BBB1BFD010DC0AA1FBB1FEE1FFF1F6C
:10105000A217B307E407F50720F0A21BB30BE40BBC
:10106000F50B661F771F881F991F1A9469F7609503
:101070007095809590959B01AC01BD01CF010895BD
:10108000EE0FFF1F0590F491E02D09940F931F932D
:10109000CF93DF938230910510F482E090E0E091ED
:1010A000E204F091E30430E020E0B0E0A0E030970B
:1010B00099F42115310509F44AC0281B390B243055
:1010C0003105D8F58A819B816115710589F1FB0194
:1010D00093838283FE0111C040815181028113817B
:1010E00048175907E0F04817590799F4109761F02D
:1010F00012960C93129713961C933296CF01DF91A0
:10110000CF911F910F9108950093E2041093E3048F
:10111000F4CF2115310551F04217530738F0A901DA
:10112000DB019A01BD01DF01F801C1CFEF01F9CF69
:101130009093E3048093E204CDCFFE01E20FF31F0E
:10114000819391932250310939832883D7CF2091FD
:10115000E0043091E104232B41F42091020130910D
:1011600003013093E1042093E004209100013091C9
:1011700001012115310541F42DB73EB7409104011D
:1011800050910501241B350BE091E004F091E1043E
:10119000E217F307A0F42E1B3F0B2817390778F04E
:1011A000AC014E5F5F4F2417350748F04E0F5F1FAD
:1011B0005093E1044093E004819391939FCFF0E03A
:1011C000E0E09CCFCF93DF930097E9F0FC013297EA
:1011D00013821282A091E204B091E304ED0130E0A9
:1011E00020E01097A1F420813181820F931F20917C
:1011F000E0043091E1042817390709F061C0F09349
:10120000E104E093E004DF91CF910895EA01CE1765
:10121000DF07E8F54A815B819E0141155105B1F771
:10122000E901FB83EA8349915991C40FD51FEC175B
:10123000FD0761F4808191810296840F951FE90179
:1012400099838883828193819B838A83F0E0E0E0A5
:1012500012968D919C9113970097B9F52D913C9121
:101260001197CD010296820F931F2091E0043091D7
:10127000E1042817390739F6309751F51092E30445
:101280001092E204B093E104A093E004BCCFD383B6
:10129000C28340815181840F951FC817D90761F41B
:1012A0004E5F5F4F88819981480F591F518340835A
:1012B0008A819B81938382832115310509F0B0CF08
:1012C000F093E304E093E2049ECFFD01DC01C0CF84
:1012D00013821282D7CF9111089581548A5108F454
:1012E000805E855A0895DC0101C06D9341505040E5
:1012F000E0F7089510E0CDE5D0E004C0FE010E94C3
:0E13000040082196CE35D107C9F7F894FFCFEB
:10130E000000E4048000FF00000000000000000068
:10131E00000000000000FF000000000000000000C0
:10132E0000000000000000000000000000000000AF
:10133E000000000000000000FF000000FFFF0000A2
:10134E000000000000FFFFFF00000000FFFF014251
:10135E000000024301000344020004450300054659
:10136E000400064705000741000108400101093F3E
:10137E0002010A3E03010B3D04010C3C05010D3632
:10138E0000020E3701020F38020210390302113A21
:10139E000402123B05021335000314340103153306
:1013AE000203163203031731040318300503192AFA
:1013BE0000041A2B01041B2C02041C2D03041D2EE9
:1013CE0004041E2F05041F290005202801052127CE
:1013DE0002052226030523250405242405052505DB
:1013EE000006260401062703020628020306290129
:1013FE0004062A0005062B0600072C0701072D08F8
:10140E0002072E0903072F0A0407300B05073111B7
:10141E00000832100108330F0208340E0308350D90
:10142E000408360C0508371200093813010939145F
:10143E0002093A1503093B1604093C1705093D1D1F
:10144E00000A3E1C010A3F1B020A401A030A4119F8
:10145E00040A4218050A431E000B441F010B4520C7
:10146E00020B4621030B4722040B4823050B0000F9
:10147E000000DA013A0167012702980176018A011C
:10148E000D0A004665686C65723A204B65696E20E0
:10149E006775656C74696765722046617262626514
:1014AE006665686C2E004665686C65723A204C4520
:1014BE00442D4E756D6D657220756E6775656C7415
:1014CE0069673A20004D617070696E673A206C6FE3
:1014DE0067697363682000202D3E20506978656C23
:1014EE0020004F4B3A204C45442000206765736521
:1014FE00747A742061756620005753323831322069
:10150E005541525420537465756572756E6720622D
:10151E0065726569742E0042656665686C653A0091
:10152E00723237203D204C454420323720726F7482
:10153E0000673120203D204C4544203120677275D4
:10154E00656E00623520203D204C454420352062DA
:10155E006C617500773732203D204C454420373280
:10156E0020776569737300743130203D204C4544FB
:10157E0020313020747565726B69730079333220B7
:10158E003D204C45442033322067656C62006F333A
:10159E0032203D204C454420333220617573005477
:1015AE0072656E6E7A65696368656E20776965200F
:1015BE004B6F6D6D61206F64657220456E74657240
:1015CE002073696E642065726C617562742C206183
:1015DE00626572206E69636874206D656872207A28
:1015EE0077696E67656E642E00456D7066616E6715
:1015FE00656E3A20005C6E005C7200466172626538
:10160E002065726B616E6E743A20004E756D6D655D
:0C161E0072206269736865723A20000057
:107E0000112484B714BE81FFF0D085E080938100F7
:107E100082E08093C00088E18093C10086E0809377
:107E2000C20080E18093C4008EE0C9D0259A86E02C
:107E300020E33CEF91E0309385002093840096BBD3
:107E4000B09BFECF1D9AA8958150A9F7CC24DD24C4
:107E500088248394B5E0AB2EA1E19A2EF3E0BF2EE7
:107E6000A2D0813461F49FD0082FAFD0023811F036
:107E7000013811F484E001C083E08DD089C08234E0
:107E800011F484E103C0853419F485E0A6D080C0E4
:107E9000853579F488D0E82EFF2485D0082F10E0AE
:107EA000102F00270E291F29000F111F8ED06801E7
:107EB0006FC0863521F484E090D080E0DECF843638
:107EC00009F040C070D06FD0082F6DD080E0C81688
:107ED00080E7D80618F4F601B7BEE895C0E0D1E017
:107EE00062D089930C17E1F7F0E0CF16F0E7DF06D8
:107EF00018F0F601B7BEE89568D007B600FCFDCFD4
:107F0000A601A0E0B1E02C9130E011968C91119780
:107F100090E0982F8827822B932B1296FA010C0160
:107F200087BEE89511244E5F5F4FF1E0A038BF0790
:107F300051F7F601A7BEE89507B600FCFDCF97BE46
:107F4000E89526C08437B1F42ED02DD0F82E2BD052
:107F50003CD0F601EF2C8F010F5F1F4F84911BD097
:107F6000EA94F801C1F70894C11CD11CFA94CF0C13
:107F7000D11C0EC0853739F428D08EE10CD085E9AC
:107F80000AD08FE07ACF813511F488E018D01DD067
:107F900080E101D065CF982F8091C00085FFFCCF94
:107FA0009093C60008958091C00087FFFCCF809118
:107FB000C00084FD01C0A8958091C6000895E0E648
:107FC000F0E098E1908380830895EDDF803219F02E
:107FD00088E0F5DFFFCF84E1DECF1F93182FE3DFCA
:107FE0001150E9F7F2DF1F91089580E0E8DFEE27F6
:047FF000FF270994CA
:027FFE00040479
:0400000300007E007B
:00000001FF
